{
  "_format": "hh-sol-artifact-1",
  "contractName": "Todos",
  "sourceName": "contracts/todo.sol",
  "abi": [
    {
      "inputs": [
        {
          "internalType": "uint256",
          "name": "_index",
          "type": "uint256"
        }
      ],
      "name": "deleteToDo",
      "outputs": [],
      "stateMutability": "nonpayable",
      "type": "function"
    },
    {
      "inputs": [],
      "name": "getTodo",
      "outputs": [
        {
          "internalType": "string[]",
          "name": "",
          "type": "string[]"
        }
      ],
      "stateMutability": "view",
      "type": "function"
    },
    {
      "inputs": [],
      "name": "getTodosLength",
      "outputs": [
        {
          "internalType": "uint256",
          "name": "",
          "type": "uint256"
        }
      ],
      "stateMutability": "view",
      "type": "function"
    },
    {
      "inputs": [
        {
          "internalType": "string",
          "name": "_todo",
          "type": "string"
        }
      ],
      "name": "setTodo",
      "outputs": [],
      "stateMutability": "nonpayable",
      "type": "function"
    },
    {
      "inputs": [
        {
          "internalType": "uint256",
          "name": "",
          "type": "uint256"
        }
      ],
      "name": "todos",
      "outputs": [
        {
          "internalType": "string",
          "name": "",
          "type": "string"
        }
      ],
      "stateMutability": "view",
      "type": "function"
    }
  ],
  "bytecode": "0x608060405234801561001057600080fd5b50610af3806100206000396000f3fe608060405234801561001057600080fd5b50600436106100575760003560e01c8063549fd1511461005c5780637fa1680a14610078578063b9abac7414610096578063bc8bc2b4146100b2578063ec209aab146100e2575b600080fd5b61007660048036038101906100719190610571565b610100565b005b6100806101e1565b60405161008d91906106f9565b60405180910390f35b6100b060048036038101906100ab9190610850565b6102ba565b005b6100cc60048036038101906100c79190610571565b6102f9565b6040516100d991906108e3565b60405180910390f35b6100ea6103a5565b6040516100f79190610914565b60405180910390f35b6000805490508110610147576040517f08c379a000000000000000000000000000000000000000000000000000000000815260040161013e9061097b565b60405180910390fd5b600060016101536103a5565b61015d91906109ca565b8154811061016e5761016d6109fe565b5b906000526020600020016000828154811061018c5761018b6109fe565b5b906000526020600020019080546101a290610a5c565b6101ad9291906103b7565b5060008054806101c0576101bf610a8e565b5b6001900381819060005260206000200160006101dc9190610444565b905550565b60606000805480602002602001604051908101604052809291908181526020016000905b828210156102b157838290600052602060002001805461022490610a5c565b80601f016020809104026020016040519081016040528092919081815260200182805461025090610a5c565b801561029d5780601f106102725761010080835404028352916020019161029d565b820191906000526020600020905b81548152906001019060200180831161028057829003601f168201915b505050505081526020019060010190610205565b50505050905090565b6000819080600181540180825580915050600190039060005260206000200160009091909190915090805190602001906102f5929190610484565b5050565b6000818154811061030957600080fd5b90600052602060002001600091509050805461032490610a5c565b80601f016020809104026020016040519081016040528092919081815260200182805461035090610a5c565b801561039d5780601f106103725761010080835404028352916020019161039d565b820191906000526020600020905b81548152906001019060200180831161038057829003601f168201915b505050505081565b60008060008054905090508091505090565b8280546103c390610a5c565b90600052602060002090601f0160209004810192826103e55760008555610433565b82601f106103f65780548555610433565b8280016001018555821561043357600052602060002091601f016020900482015b82811115610432578254825591600101919060010190610417565b5b509050610440919061050a565b5090565b50805461045090610a5c565b6000825580601f106104625750610481565b601f016020900490600052602060002090810190610480919061050a565b5b50565b82805461049090610a5c565b90600052602060002090601f0160209004810192826104b257600085556104f9565b82601f106104cb57805160ff19168380011785556104f9565b828001600101855582156104f9579182015b828111156104f85782518255916020019190600101906104dd565b5b509050610506919061050a565b5090565b5b8082111561052357600081600090555060010161050b565b5090565b6000604051905090565b600080fd5b600080fd5b6000819050919050565b61054e8161053b565b811461055957600080fd5b50565b60008135905061056b81610545565b92915050565b60006020828403121561058757610586610531565b5b60006105958482850161055c565b91505092915050565b600081519050919050565b600082825260208201905092915050565b6000819050602082019050919050565b600081519050919050565b600082825260208201905092915050565b60005b838110156106045780820151818401526020810190506105e9565b83811115610613576000848401525b50505050565b6000601f19601f8301169050919050565b6000610635826105ca565b61063f81856105d5565b935061064f8185602086016105e6565b61065881610619565b840191505092915050565b600061066f838361062a565b905092915050565b6000602082019050919050565b600061068f8261059e565b61069981856105a9565b9350836020820285016106ab856105ba565b8060005b858110156106e757848403895281516106c88582610663565b94506106d383610677565b925060208a019950506001810190506106af565b50829750879550505050505092915050565b600060208201905081810360008301526107138184610684565b905092915050565b600080fd5b600080fd5b7f4e487b7100000000000000000000000000000000000000000000000000000000600052604160045260246000fd5b61075d82610619565b810181811067ffffffffffffffff8211171561077c5761077b610725565b5b80604052505050565b600061078f610527565b905061079b8282610754565b919050565b600067ffffffffffffffff8211156107bb576107ba610725565b5b6107c482610619565b9050602081019050919050565b82818337600083830152505050565b60006107f36107ee846107a0565b610785565b90508281526020810184848401111561080f5761080e610720565b5b61081a8482856107d1565b509392505050565b600082601f8301126108375761083661071b565b5b81356108478482602086016107e0565b91505092915050565b60006020828403121561086657610865610531565b5b600082013567ffffffffffffffff81111561088457610883610536565b5b61089084828501610822565b91505092915050565b600082825260208201905092915050565b60006108b5826105ca565b6108bf8185610899565b93506108cf8185602086016105e6565b6108d881610619565b840191505092915050565b600060208201905081810360008301526108fd81846108aa565b905092915050565b61090e8161053b565b82525050565b60006020820190506109296000830184610905565b92915050565b7f5468697320746f646f20696e64657820646f6573206e6f742065786973742e00600082015250565b6000610965601f83610899565b91506109708261092f565b602082019050919050565b6000602082019050818103600083015261099481610958565b9050919050565b7f4e487b7100000000000000000000000000000000000000000000000000000000600052601160045260246000fd5b60006109d58261053b565b91506109e08361053b565b9250828210156109f3576109f261099b565b5b828203905092915050565b7f4e487b7100000000000000000000000000000000000000000000000000000000600052603260045260246000fd5b7f4e487b7100000000000000000000000000000000000000000000000000000000600052602260045260246000fd5b60006002820490506001821680610a7457607f821691505b60208210811415610a8857610a87610a2d565b5b50919050565b7f4e487b7100000000000000000000000000000000000000000000000000000000600052603160045260246000fdfea264697066735822122009776f5008007d151096fdb1b876dc33a119510710bccf4a8bb61c0a7efac0de64736f6c63430008090033",
  "linkReferences": {},
  "deployedLinkReferences": {}
}